:100000000C9404030C9421030C9421030C942103FD
:100010000C9421030C9421030C9421030C942103D0
:100020000C9421030C9421030C9421030C942103C0
:100030000C9421030C9421030C9421030C942103B0
:100040000C9421030C9421030C9421030C942103A0
:100050000C9421030C9421030C9421030C94210390
:100060000C9421030C942103000000000000000008
:100070000000000000000000000000000000000080
:1000800007FF80000000000000000000000007FFE4
:10009000FFF00000000000000000000003FFFFFF71
:1000A000F800000000000000000000FFFFF000FE6C
:1000B0000000000000000000003FFFF000003F00D3
:1000C0000000000000000007FFF80000001FC00053
:1000D000000000000000FFFF0000000007E000003B
:1000E000000000000FFFC00000000003F800000047
:1000F000000000FFF800000001E000FC000000002C
:10010000000FFF800000003FF8007F0000000000AB
:10011000FFF800000007F00E003F8000000007FF1E
:10012000000000007E0007000FC00000003FF80044
:10013000000007E00001C007F0000001FF800000A0
:10014000003E000000E001F8000007FC0000000194
:10015000E00000003800FC00001FE00000001F006D
:100160000000001C007F0000FF80000000780000FD
:10017000000006003F8001FC00000003C0033000C7
:100180000003800FC007F00000001E0004180000EC
:1001900001C007E01FC000000078000DEC00000067
:1001A0006003F03F00000001E0000FEC00000030B1
:1001B00001F87E00000003800005D8000000180050
:1001C000FCFC0000000FF01F87387E007E0C007ED4
:1001D000F80000001E0C60673BC1C381C6003FF001
:1001E0000000003CE7CF3CCE187E3863001FF000D3
:1001F00000007BF39F9DECFF39FF31801FF0000072
:100200000079FD3F9FF9FF9BFF99C00FF0000000B0
:100210007CFE7F3FFFFFF7FFD9C00FF00000003EDC
:100220007FFE7DFB99FFBFD9C00EF80000003F3F65
:10023000FECDFDC3F79B9F800FFC0000000F9FF9D0
:100240008DEFFFF9E71F001F7E00000007C0030CC1
:100250000C3FDE207E003F3F80000001F00E0719BA
:100260009FDF83FC007E0FC00000007E000079E36A
:1002700098383800FC07F00000001C0000067F30B2
:10028000007001F801FC000000070000030060009E
:10029000C003F0007F80000001E00001E7800180E2
:1002A00007E0001FE00000003C0000000007001F06
:1002B000C00007FC0000000F800000000C003F8021
:1002C0000001FF80000001F000000038007E000007
:1002D000003FF00000001E000000E001FC000000F4
:1002E00007FE00000003E00001C003F00000000072
:1002F000FFE00000007E0007000FE0000000001F8C
:10030000FC00000007E00C001FC00000000003FF1D
:10031000E00000007F38007F0000000000003FFC8C
:1003200000000007E000FE00000000000003FFE006
:100330000000000003F8000000000000003FFE0085
:1003400000000007E00000000000000003FFF000D4
:1003500000001DC000000000000000001FFFC000E2
:10036000007700000000000000000000FFFF000018
:10037000CE0000000000000000000007FF1E033850
:1003800000000000000000000000001FFE00E00070
:1003900000000000000000000000003FFF8000009F
:1003A000000000000000000000000000000000004D
:1003B000000000000000000000000000000000003D
:1003C000000000000000000000000000000000002D
:1003D000000000000000000000000000000000001D
:1003E0000000E000000000003800000000000000F5
:1003F00003F00000000000FE000000000000000705
:10040000F80000000001FF000000000000000FFCE9
:100410000000000001FF000000000000000F3C0091
:1004200000000003C7800000000000000E1C000058
:1004300000000387800000000000000EDE000000C6
:1004400000039380000000301FC07E1FF81C01C114
:10045000FF83FE070001FE3FF3FE1FFC7F8FFFFFBF
:1004600087FF3FC003FFFFFFFF3FFFFFFFFFFFC707
:10047000FFFFE007FFFDFFFF3F3FFFFFFFFFEFEF45
:10048000FFF00FC7F03F1F3C0FE3FE3E30EF83F855
:10049000F80F03E31E0718C780F81C00C731E07887
:1004A0001E31C79C0619E78C718CE0C67CE03C1EAF
:1004B00078CCCC0213333E73E4E096C4C23C1CFCFF
:1004C000DA4862D6D33F67E4D89492C61C1CC0D3E6
:1004D00068E2F4CB6026069F9DB2471C1CC0D3285F
:1004E0006BFCCB6066049F9FBA461E1CFFC30C4D7D
:1004F000FCC33FE7FC9F9F38461E1C30C70C1EFC08
:10050000C30C20869F9F38409E1C00C30E1A10C348
:100510000070041FC438719E0E01C30FFA10C3800F
:10052000700C1F84387D9E0F03830C7A10C3C0F8B3
:100530001C1F8438479E07CFC70861C4C3F3FE3E23
:100540009FD138C21E03FFFFF843FFFFFFFFFFFFED
:10055000FFFFC21C03FFFFFC03FFFFFFFFFFF9FFCC
:10056000FFC01C01FFFFFC07FFFFFF8FFFF8FFFF2D
:10057000E03C003838FE07FF1C1C01C1C03FC7F03B
:100580007C0000001F9F8000000000000000F9F8C0
:100590000000000FFF0000000000000000FFF80056
:1005A000000007FE00000000000000007FF00000D7
:1005B0000003FC00000000000000003FC00000003D
:1005C00000F0000000000000000007000000000034
:1005D000000000000000000000000000000000001B
:1005E000000000000000000000000000000000000B
:1005F00000000000000000000000000000000000FB
:10060000000000000000000011241FBECFEFD4E066
:10061000DEBFCDBF11E0A0E0B1E0E8E9F1E102C04A
:1006200005900D92A838B107D9F721E0A8E8B1E00C
:1006300001C01D92AE38B207E1F70E94E4040C94A9
:10064000CA080C940000CF93C82F8A3019F48DE0AB
:100650000E9423038091C00085FFFCCFC093C60099
:1006600080E090E0CF9108958091C00087FFFCCF9B
:100670008091C60090E008951092C50087E68093AF
:10068000C40086E08093C20088E18093C100089591
:10069000AF92BF92CF92DF92EF92FF920F931F9390
:1006A000CF93DF936C017B01009729F18B01C0E0B0
:1006B000D0E0580180918801909189010E949505B0
:1006C000F80181938F018A3011F08D3011F4F5011A
:1006D0000EC060918A0170918B0190E00E94D30559
:1006E0002196CC15DD0529F7F701EC0FFD1F1082CF
:1006F0008C2F8F5F01C080E0DF91CF911F910F9110
:10070000FF90EF90DF90CF90BF90AF90089580E082
:1007100091E090938901809388018EE091E090931D
:100720008B0180938A010895CF93DF93EC018F3F73
:10073000910540F08FEF90E00E9419068FEF90E056
:100740008C1B9D0BDF91CF910C9419061F93CF93B7
:10075000DF931F92CDB7DEB7182F20E631E03F932D
:100760002F9369830E940506812F90E00E949403D5
:100770006981862F90E00E94940385E691E09F9323
:100780008F930E9405060F900F900F900F900F907F
:10079000DF91CF911F9108950F931F93CF93DF9314
:1007A000EC018B01411103C08AE691E002C08DE6A5
:1007B00091E09F938F930E940506CE010E949403BF
:1007C0000F900F90C801DF91CF911F910F910C9462
:1007D0009403CF93DF93EA0140E00E94CC0320E72B
:1007E00031E03F932F930E940506CE010E94200620
:1007F0000F900F9080E090E0DF91CF910C9419065C
:10080000CF93DF93EC0120E731E03F932F930E94D9
:1008100005060F900F90CE01DF91CF910C9420062A
:10082000CF93C82F23E731E03F932F930E94050613
:100830000F900F908C2F90E0CF910C949403CF9257
:10084000DF92EF92FF920F931F93CF93DF93C0E05D
:10085000D0E0C82ED12C86E7E82E81E0F82E0AE7FA
:1008600011E0CC15DD0504F5FF92EF920E9405061C
:100870002FEF89E698E1215080409040E1F700C0D9
:1008800000001F930F930E9405062FEF89E698E161
:10089000215080409040E1F700C0000021960F9069
:1008A0000F900F900F90DDCFDF91CF911F910F919F
:1008B000FF90EF90DF90CF9008958EE791E09F93A7
:1008C0008F930E9405060F900F9008951F93CF936A
:1008D000DF9300D01F92CDB7DEB7182FE1E8F1E02B
:1008E000FF93EF932B834A8369830E940506812F30
:1008F00090E00E9494036981862F90E00E94940307
:100900004A81842F90E00E9494032B81822F90E0F3
:100910000F900F900F900F900F90DF91CF911F913C
:100920000C949403AF92BF92CF92DF92EF92FF921A
:100930000F931F93CF93DF936C015B01EA01790161
:1009400024E831E03F932F930E940506C6010E94E0
:100950009403C5010E949403CE010E949403C70131
:100960000E9494039E0193E0359527959A95E1F7AF
:10097000C770DD2781E090E00F900F90CD2B11F430
:1009800080E090E0820F931FE89E6001E99ED00C0A
:10099000F89ED00C1124C0E0D0E0CC15DD054CF45D
:1009A000F801EC0FFD1F849190E00E94190621963A
:1009B000F4CFDF91CF911F910F91FF90EF90DF90D7
:1009C000CF90BF90AF9008950E943C030E94870390
:1009D0000E945D0481E00E94100440E060E070E04D
:1009E00080E090E00E94CC038CE191E00E94000442
:1009F00081E00E941F042FEF83ED90E3215080409F
:100A00009040E1F700C0000040E061E070E080E06D
:100A100090E00E94CC038DE291E00E94000482E00D
:100A20000E941F042FEF83ED90E3215080409040FF
:100A3000E1F700C0000040E062E070E080E090E09C
:100A40000E94CC038EE391E00E94000483E00E94A8
:100A50001F042FEF83ED90E3215080409040E1F799
:100A600000C0000040E063E070E080E090E00E94A1
:100A7000CC038FE491E00E94000484E00E941F04F4
:100A800080E00E9410040E945D0420E040E860E4E1
:100A900080E00E9466042FEF83ED90E321508040B8
:100AA0009040E1F700C0000020E440E860E080E012
:100AB0000E9466042FEF83ED90E321508040904028
:100AC000E1F700C0000085E00E941F040E945D0461
:100AD00008E610E028E330E048E750E064E070E02A
:100AE00084E090E00E9492042FEF83ED90E3215088
:100AF00080409040E1F700C000000E945D0400EBE0
:100B000013E028E230E048E750E06CE070E084E079
:100B100090E00E9492042FEF83ED90E321508040FB
:100B20009040E1F700C00000D1CFCF93DF93EC01FC
:100B30002B8120FF33C026FF0AC02F7B2B838E81A1
:100B40009F8101969F838E838A8190E029C022FF36
:100B50000FC0E881F9818081992787FD90950097E2
:100B600019F420622B831AC03196F983E8830EC0F2
:100B7000EA85FB85099597FF09C02B81019611F441
:100B800080E101C080E2822B8B8308C02E813F81EF
:100B90002F5F3F4F3F832E83992702C08FEF9FEF38
:100BA000DF91CF9108950F931F93CF93DF93182F69
:100BB000092FEB018B8181FD03C08FEF9FEF20C0D8
:100BC00082FF10C04E815F812C813D814217530707
:100BD0007CF4E881F9819F012F5F3F4F398328839F
:100BE000108306C0E885F985812F0995892B29F79F
:100BF0002E813F812F5F3F4F3F832E83812F902F88
:100C0000DF91CF911F910F910895A0E0B0E0EBE04C
:100C1000F6E00C94A308FE01359661917191AF0145
:100C200080918A0190918B010E944D06E2E00C9424
:100C3000BF0860918A0170918B010E94D3050895CD
:100C40000F931F93CF93DF93E0918A01F0918B0173
:100C5000238121FF1BC0EC0100E010E0899160912D
:100C60008A0170918B01DB011896ED91FC91199727
:100C7000882331F00995892B89F30FEF1FEFEECF11
:100C80008AE00995892B11F4C80102C08FEF9FEF0C
:100C9000DF91CF911F910F910895ACE0B0E0E3E5B3
:100CA000F6E00C9493087C016B018A01FC01178229
:100CB0001682838181FFBDC1CE0101964C01F701EF
:100CC0009381F60193FD859193FF81916F018823B4
:100CD00009F4ABC1853239F493FD859193FF81917D
:100CE0006F01853229F4B70190E00E94D305E7CF68
:100CF000512C312C20E02032A0F48B3269F030F4FA
:100D0000803259F0833269F420612CC08D3239F081
:100D1000803339F4216026C02260246023C028601B
:100D200021C027FD27C030ED380F3A3078F426FF78
:100D300006C0FAE05F9E300D1124532E13C08AE0E6
:100D4000389E300D1124332E20620CC08E3221F4D7
:100D500026FD6BC1206406C08C3611F4206802C0E9
:100D6000883641F4F60193FD859193FF81916F01DF
:100D70008111C1CF982F9F7D9554933028F40C5F3B
:100D80001F4FFFE3F9830DC0833631F0833771F0D5
:100D9000833509F05BC022C0F801808189830E5F32
:100DA0001F4F44244394512C540115C03801F2E0E4
:100DB0006F0E711CF801A080B18026FF03C0652D65
:100DC00070E002C06FEF7FEFC5012C870E942A08F8
:100DD0002C0183012C852F77222E17C03801F2E0D9
:100DE0006F0E711CF801A080B18026FF03C0652D35
:100DF00070E002C06FEF7FEFC5012C870E941F08D3
:100E00002C012C852068222E830123FC1BC0832DFE
:100E100090E048165906B0F4B70180E290E00E94D5
:100E2000D3053A94F4CFF50127FC859127FE8191F3
:100E30005F01B70190E00E94D30531103A94F1E0D0
:100E40004F1A51084114510471F7E5C0843611F06E
:100E5000893639F5F80127FF07C0608171818281E9
:100E600093810C5F1F4F08C060817181882777FDD7
:100E70008095982F0E5F1F4F2F76B22E97FF09C0D7
:100E800090958095709561957F4F8F4F9F4F20680B
:100E9000B22E2AE030E0A4010E943508A82EA8183E
:100EA00044C0853729F42F7EB22E2AE030E025C0D9
:100EB000F22FF97FBF2E8F36C1F018F4883579F004
:100EC000B4C0803719F0883721F0AFC02F2F2061D0
:100ED000B22EB4FE0DC08B2D8460B82E09C024FF45
:100EE0000AC09F2F9660B92E06C028E030E005C0EA
:100EF00020E130E002C020E132E0F801B7FE07C097
:100F000060817181828193810C5F1F4F06C0608177
:100F1000718180E090E00E5F1F4FA4010E943508B0
:100F2000A82EA818FB2DFF77BF2EB6FE0BC02B2DC9
:100F30002E7FA51450F4B4FE0AC0B2FC08C02B2DBD
:100F40002E7E05C07A2C2B2D03C07A2C01C0752C67
:100F500024FF0DC0FE01EA0DF11D8081803311F4E4
:100F6000297E09C022FF06C07394739404C0822FA7
:100F7000867809F0739423FD13C020FF06C05A2C15
:100F8000731418F4530C5718732C731468F4B701C6
:100F900080E290E02C870E94D30573942C85F5CFD6
:100FA000731410F4371801C0312C24FF12C0B7019C
:100FB00080E390E02C870E94D3052C8522FF17C088
:100FC00021FF03C088E590E002C088E790E0B70108
:100FD0000CC0822F867859F021FD02C080E201C04A
:100FE0008BE227FD8DE2B70190E00E94D305A514A6
:100FF00038F4B70180E390E00E94D3055A94F7CF0C
:10100000AA94F401EA0DF11D8081B70190E00E94DD
:10101000D305A110F5CF332009F451CEB70180E2FA
:1010200090E00E94D3053A94F6CFF701868197812C
:1010300002C08FEF9FEF2C96E2E10C94AF08FC0109
:101040000590615070400110D8F7809590958E0FF3
:101050009F1F0895FC016150704001900110D8F766
:10106000809590958E0F9F1F0895FA01AA2728302A
:1010700051F1203181F1E8946F936E7F6E5F7F4F65
:101080008F4F9F4FAF4FB1E03ED0B4E03CD0670FE1
:10109000781F891F9A1FA11D680F791F8A1F911D34
:1010A000A11D6A0F711D811D911DA11D20D009F484
:1010B00068943F912AE0269F11243019305D3193C6
:1010C000DEF6CF010895462F4770405D4193B3E0AF
:1010D0000FD0C9F7F6CF462F4F70405D4A3318F056
:1010E000495D31FD4052419302D0A9F7EACFB4E007
:1010F000A6959795879577956795BA95C9F70097BF
:101100006105710508959B01AC010A2E069457955F
:10111000479537952795BA95C9F7620F731F841FB6
:10112000951FA01D08952F923F924F925F926F924C
:101130007F928F929F92AF92BF92CF92DF92EF9267
:10114000FF920F931F93CF93DF93CDB7DEB7CA1BE8
:10115000DB0B0FB6F894DEBF0FBECDBF09942A8813
:10116000398848885F846E847D848C849B84AA84BB
:10117000B984C884DF80EE80FD800C811B81AA8148
:10118000B981CE0FD11D0FB6F894DEBF0FBECDBF13
:08119000ED010895F894FFCF72
:10119800000000010000000000003403000000000F
:1011A800000200000000230300000000204A656ED2
:1011B8006E69666572205669676F2020002020419D
:1011C8006C64616E6973205669676F202000414E18
:1011D80044204B494453202C204841505059005436
:1011E80048414E4B53474956494E472044415900C0
:1011F800535443520080C094D400545000475000C8
:10120800545400435300424C3000424C3100434C8C
:08121800004C4E0044494D005A
:00000001FF
