:100000000C9434000C9451000C9451000C94510049
:100010000C9451000C9451000C9451000C9451001C
:100020000C9451000C9451000C9451000C9451000C
:100030000C9451000C9451000C9451000C945100FC
:100040000C9451000C9451000C9451000C945100EC
:100050000C9451000C9451000C9451000C945100DC
:100060000C9451000C94510011241FBECFEFD4E02A
:10007000DEBFCDBF12E0A0E0B1E0E8E9FFE002C0E2
:1000800005900D92AC39B107D9F722E0ACE9B2E0A6
:1000900001C01D92A73AB207E1F70E9488020C94B2
:1000A000CA070C940000CF93C82F8A3019F48DE052
:1000B0000E9453008091C00085FFFCCFC093C60012
:1000C00080E090E0CF9108958091C00087FFFCCF41
:1000D0008091C60090E008951092C50087E6809355
:1000E000C40086E08093C20088E18093C100089537
:1000F00080E480937C0087E880937A000895909153
:100100007C008770892B80937C0080917A008064CA
:1001100080937A0080917A0084FFFCCF80917A00EE
:10012000806180937A008091780090917900A0E0BE
:10013000B0E0FB0180839183A283B3838091780038
:1001400090917900089520E030E090E0AC01022E1B
:1001500002C0559547950A94E2F740FF11C022303E
:10016000310551F02330310529F02130310531F4CA
:100170005F9A16C05D9A14C05E9A12C0289A10C089
:100180002230310551F02330310529F0213031057D
:1001900031F45F9805C05D9803C05E9801C028984F
:1001A0002F5F3F4F2430310589F6089520E030E07D
:1001B00090E0AC01022E02C0559547950A94E2F7F3
:1001C00040FF11C02230310551F02330310529F0B4
:1001D0002130310531F4439A16C0419A14C0429A35
:1001E00012C0449A10C02230310551F0233031053D
:1001F00029F02130310531F4439805C0419803C0FE
:10020000429801C044982F5F3F4F2430310589F652
:1002100008951F93CF93DF931F92CDB7DEB7182FAA
:100220008A3028F480E00E94A300812F08C06AE091
:100230000E94780499830E94A3009981892F0F90CE
:10024000DF91CF911F910C94D6004F925F926F92E5
:100250007F92AF92BF92CF92DF92EF92FF920F9375
:100260001F93CF93DF9300D000D0CDB7DEB7698363
:100270007A838B839C8329013A01C601B5012D89BC
:100280003E894F89588DA980BA80CB80DC802A199D
:100290003B094C095D096E197F09800B910B0E9487
:1002A00068044A185B086C087D08A30192010E944B
:1002B00098042E0D3F1D401F511FCA01B9010F9018
:1002C0000F900F900F90DF91CF911F910F91FF90A2
:1002D000EF90DF90CF90BF90AF907F906F905F9046
:1002E0004F9008950F931F93CF93DF93C0E0D0E01A
:1002F000082F10E0C017D10704F58FE00E94A3007B
:100300008FE00E94D6002FEF89E698E121508040CF
:100310009040E1F700C0000088E00E94A30088E060
:100320000E94D6002FEF89E698E12150804090404E
:10033000E1F700C000002196DDCFDF91CF911F9142
:100340000F910895882331F095E09A95F1F7000018
:100350008150F8CF08958F929F92AF92BF92CF9223
:10036000DF92EF92FF921F93CF93DF9300D000D0E4
:10037000CDB7DEB76B017C0149015A0160E271EA39
:1003800087E090E0A70196010E949804122FA70130
:100390009601C501B4010E94680428EE33E040E0F4
:1003A00050E00E949804C12CD12C7601C216D306CD
:1003B000E406F506B4F45A9A812F29833A834B83D5
:1003C0005C830E94A2015A98812F0E94A2018FEFA4
:1003D000C81AD80AE80AF80A5C814B813A81298157
:1003E000E5CF0F900F900F900F90DF91CF911F915D
:1003F000FF90EF90DF90CF90BF90AF909F908F9045
:1004000008950F931F93CF93DF93C0E0D0E0082FA0
:1004100010E0C017D10764F420E137E240E050E07B
:1004200061E270E080E090E00E94AB012196F1CFA4
:10043000DF91CF911F910F9108954F925F926F922C
:100440007F92AF92BF92CF92DF92EF92FF920F9383
:100450001F93CF93DF9300E010E0C82ED12C98EECD
:10046000A92E93E0B92E0C151D050CF042C0C0E07A
:10047000D1E08CE9E82E81E0F82E69917991C501EF
:100480000E9484042B01662457FC6094762CF701AB
:10049000619171917F01882777FD8095982FA30145
:1004A00092010E94AB01C301B2010E94790326E6CA
:1004B00036E646EA5FE30E94DD030E9446036115CB
:1004C000710549F08FEA94E00197F1F700C0000050
:1004D00061507109F4CFA301920160E070E0CB019B
:1004E0000E94AB0191E0CC39D90739F60F5F1F4F5D
:1004F000BACFDF91CF911F910F91FF90EF90DF90D6
:10050000CF90BF90AF907F906F905F904F90089585
:10051000CF93DF9300D01F92CDB7DEB70E946C005F
:1005200086E492E09093A4028093A30288E392E091
:100530009093A2028093A1020E947800559A569A45
:10054000579A209A399A3A9A3B9A3C9A3D9A21981E
:100550002298529A85E00E947201CC24CA9423E02A
:10056000D22EE12CF12C35E6232E32E0332E4AE058
:10057000A42EB12C09E712E06DE972E080E00E9440
:100580007F009F938F93A4E5B2E0BF93AF930E9447
:10059000070520919D0230919E0240919F0250914B
:1005A000A002A3E6B0E00E94B704A70196010E9452
:1005B000980429013A017F926F925F922F933F92A4
:1005C0002F920E940705842D0E9409010FB6F8940E
:1005D000DEBF0FBECDBF199BCFCF14141504160478
:1005E000170454F682E00E9472019FEFA3EDB0E37E
:1005F0009150A040B040E1F700C00000459A812C26
:10060000912C92012819390937FD2EC0EFEF8E1A6F
:100610009E0A1A9B04C0F1E0F0939C0225C0C90118
:10062000B5010E948404982F862F2A833B839983E7
:100630000E94A3009981892F0E94D6002A813B81C4
:100640003F932F931F930F930E9407052FEF83ED86
:1006500090E3215080409040E1F700C000000F90EF
:100660000F900F900F90CDCF459880919C028111F3
:1006700004C082E00E941D0205C08DE00E940102BC
:1006800010929C0282E00E94720176CF04D068949E
:10069000B1118DC0089570D088F09F5790F0B92F98
:1006A0009927B751A0F0D1F0660F771F881F991FC7
:1006B0001AF0BA95C9F712C0B13081F077D0B1E025
:1006C000089574C0672F782F8827B85F39F0B93F35
:1006D000CCF3869577956795B395D9F73EF49095C9
:1006E0008095709561957F4F8F4F9F4F0895E89447
:1006F00009C097FB3EF490958095709561957F4F6A
:100700008F4F9F4F9923A9F0F92F96E9BB27939517
:10071000F695879577956795B795F111F8CFFAF427
:10072000BB0F11F460FF1BC06F5F7F4F8F4F9F4F58
:1007300016C0882311F096E911C0772321F09EE8B6
:10074000872F762F05C0662371F096E8862F70E01C
:1007500060E02AF09A95660F771F881FDAF7880FF6
:100760009695879597F9089557FD9058440F551F12
:1007700059F05F3F71F04795880F97FB991F61F023
:100780009F3F79F087950895121613061406551F9A
:10079000F2CF4695F1DF08C0161617061806991F06
:1007A000F1CF86957105610508940895E894BB27FB
:1007B00066277727CB0197F908950BD078C069D0C9
:1007C00028F06ED018F0952309F05AC05FC01124AC
:1007D000EECFCADFA0F3959FD1F3950F50E0551FE0
:1007E000629FF001729FBB27F00DB11D639FAA2786
:1007F000F00DB11DAA1F649F6627B00DA11D661FD5
:10080000829F2227B00DA11D621F739FB00DA11DF5
:10081000621F839FA00D611D221F749F3327A00DAF
:10082000611D231F849F600D211D822F762F6A2F4B
:1008300011249F5750408AF0E1F088234AF0EE0FD0
:10084000FF1FBB1F661F771F881F91505040A9F7DD
:100850009E3F510570F014C0AACF5F3FECF3983E65
:10086000DCF3869577956795B795F795E7959F5F44
:10087000C1F7FE2B880F911D9695879597F90895DE
:1008800097F99F6780E870E060E008959FEF80EC43
:10089000089500240A9416161706180609060895E6
:1008A00000240A9412161306140605060895092E4C
:1008B0000394000C11F4882352F0BB0F40F4BF2BBB
:1008C00011F460FF04C06F5F7F4F8F4F9F4F0895FB
:1008D000DB018F939F930E94B704BF91AF91A29FBA
:1008E000800D911DA39F900DB29F900D112408952E
:1008F000991B79E004C0991F961708F0961B881F72
:100900007A95C9F78095089597FB072E16F4009401
:1009100007D077FD09D00E94C20407FC05D03EF441
:10092000909581959F4F0895709561957F4F08959B
:10093000052E97FB1EF400940E94AF0457FD07D0CC
:100940000E94D60407FC03D04EF40C94AF045095DB
:100950004095309521953F4F4F4F5F4F08959095AB
:100960008095709561957F4F8F4F9F4F08950E949E
:10097000F804A59F900DB49F900DA49F800D911D2C
:1009800011240895AA1BBB1B51E107C0AA1FBB1F5E
:10099000A617B70710F0A61BB70B881F991F5A950B
:1009A000A9F780959095BC01CD010895A1E21A2E7A
:1009B000AA1BBB1BFD010DC0AA1FBB1FEE1FFF1F03
:1009C000A217B307E407F50720F0A21BB30BE40B53
:1009D000F50B661F771F881F991F1A9469F760959A
:1009E0007095809590959B01AC01BD01CF01089554
:1009F000A29FB001B39FC001A39F700D811D112460
:100A0000911DB29F700D811D1124911D0895A0E0CC
:100A1000B0E0EDE0F5E00C94A307FE01359661919E
:100A20007191AF018091A3029091A4020E941B05D5
:100A3000E2E00C94BF07ACE0B0E0E1E2F5E00C943A
:100A400093077C016B018A01FC0117821682838166
:100A500081FFBDC1CE0101964C01F7019381F601E2
:100A600093FD859193FF81916F01882309F4ABC1B8
:100A7000853239F493FD859193FF81916F01853221
:100A800029F4B70190E00E940307E7CF512C312CE5
:100A900020E02032A0F48B3269F030F4803259F03B
:100AA000833269F420612CC08D3239F0803339F4FF
:100AB000216026C02260246023C0286021C027FD59
:100AC00027C030ED380F3A3078F426FF06C0FAE040
:100AD0005F9E300D1124532E13C08AE0389E300DD6
:100AE0001124332E20620CC08E3221F426FD6BC1FE
:100AF000206406C08C3611F4206802C0883641F4A8
:100B0000F60193FD859193FF81916F018111C1CF12
:100B1000982F9F7D9554933028F40C5F1F4FFFE36F
:100B2000F9830DC0833631F0833771F0833509F0D6
:100B30005BC022C0F801808189830E5F1F4F44246F
:100B40004394512C540115C03801F2E06F0E711C12
:100B5000F801A080B18026FF03C0652D70E002C0BF
:100B60006FEF7FEFC5012C870E94F8062C018301EF
:100B70002C852F77222E17C03801F2E06F0E711CE2
:100B8000F801A080B18026FF03C0652D70E002C08F
:100B90006FEF7FEFC5012C870E94ED062C012C859D
:100BA0002068222E830123FC1BC0832D90E0481671
:100BB0005906B0F4B70180E290E00E9403073A942E
:100BC000F4CFF50127FC859127FE81915F01B701E4
:100BD00090E00E94030731103A94F1E04F1A510857
:100BE0004114510471F7E5C0843611F0893639F5A6
:100BF000F80127FF07C060817181828193810C5FBA
:100C00001F4F08C060817181882777FD8095982FDC
:100C10000E5F1F4F2F76B22E97FF09C090958095DB
:100C2000709561957F4F8F4F9F4F2068B22E2AE0BD
:100C300030E0A4010E943507A82EA81844C08537CB
:100C400029F42F7EB22E2AE030E025C0F22FF97F62
:100C5000BF2E8F36C1F018F4883579F0B4C08037D4
:100C600019F0883721F0AFC02F2F2061B22EB4FECB
:100C70000DC08B2D8460B82E09C024FF0AC09F2FA1
:100C80009660B92E06C028E030E005C020E130E0D3
:100C900002C020E132E0F801B7FE07C06081718137
:100CA000828193810C5F1F4F06C06081718180E05B
:100CB00090E00E5F1F4FA4010E943507A82EA818D0
:100CC000FB2DFF77BF2EB6FE0BC02B2D2E7FA5145C
:100CD00050F4B4FE0AC0B2FC08C02B2D2E7E05C015
:100CE0007A2C2B2D03C07A2C01C0752C24FF0DC04B
:100CF000FE01EA0DF11D8081803311F4297E09C0C7
:100D000022FF06C07394739404C0822F867809F082
:100D1000739423FD13C020FF06C05A2C731418F4DB
:100D2000530C5718732C731468F4B70180E290E0E9
:100D30002C870E94030773942C85F5CF731410F44D
:100D4000371801C0312C24FF12C0B70180E390E0B6
:100D50002C870E9403072C8522FF17C021FF03C0A8
:100D600088E590E002C088E790E0B7010CC0822FD0
:100D7000867859F021FD02C080E201C08BE227FD98
:100D80008DE2B70190E00E940307A51438F4B70183
:100D900080E390E00E9403075A94F7CFAA94F401ED
:100DA000EA0DF11D8081B70190E00E940307A110B8
:100DB000F5CF332009F451CEB70180E290E00E94D4
:100DC00003073A94F6CFF7018681978102C08FEF2F
:100DD0009FEF2C96E2E10C94AF07FC010590615067
:100DE00070400110D8F7809590958E0F9F1F089541
:100DF000FC016150704001900110D8F780959095EA
:100E00008E0F9F1F08950F931F93CF93DF93182F7B
:100E1000092FEB018B8181FD03C08FEF9FEF20C075
:100E200082FF10C04E815F812C813D8142175307A4
:100E30007CF4E881F9819F012F5F3F4F398328833C
:100E4000108306C0E885F985812F0995892B29F73C
:100E50002E813F812F5F3F4F3F832E83812F902F25
:100E6000DF91CF911F910F910895FA01AA272830A1
:100E700051F1203181F1E8946F936E7F6E5F7F4F67
:100E80008F4F9F4FAF4FB1E03ED0B4E03CD0670FE3
:100E9000781F891F9A1FA11D680F791F8A1F911D36
:100EA000A11D6A0F711D811D911DA11D20D009F486
:100EB00068943F912AE0269F11243019305D3193C8
:100EC000DEF6CF010895462F4770405D4193B3E0B1
:100ED0000FD0C9F7F6CF462F4F70405D4A3318F058
:100EE000495D31FD4052419302D0A9F7EACFB4E009
:100EF000A6959795879577956795BA95C9F70097C1
:100F00006105710508959B01AC010A2E0694579561
:100F1000479537952795BA95C9F7620F731F841FB8
:100F2000951FA01D08952F923F924F925F926F924E
:100F30007F928F929F92AF92BF92CF92DF92EF9269
:100F4000FF920F931F93CF93DF93CDB7DEB7CA1BEA
:100F5000DB0B0FB6F894DEBF0FBECDBF09942A8815
:100F6000398848885F846E847D848C849B84AA84BD
:100F7000B984C884DF80EE80FD800C811B81AA814A
:100F8000B981CE0FD11D0FB6F894DEBF0FBECDBF15
:080F9000ED010895F894FFCF74
:100F98000C000C000C000C000C000C000C000C00E9
:100FA8000C000C000C000C000C000C000C000C00D9
:100FB8000C000C000C000C000C000C000C000C00C9
:100FC8000C000C000C000C000C000C000C000C00B9
:100FD8000900090009000C000C000C000C000C00B2
:100FE8000C000C000C000C000C000C000C000C0099
:100FF8000C000C000C000C000C000C000C000C0089
:101008000C000C000C000C000C000C000C0009007B
:10101800090009000C000C000C000C000C000C006E
:101028000C000C000C000C000C000C004D0A4D0AC2
:1010380000004D0A00002D084D0A0000400C000079
:101048000000000020060000000000002D0800003D
:101058000000200600000000270500000000E00650
:101068000000B80700004907E006000020064D0A06
:10107800400CC00D0000EA0A400C00004D0A0000B8
:101088002D082D09B807000000002D0800000000F9
:10109800200600000000270500000000E006000010
:1010A800B80700004907E006000020064D0A400C7A
:1010B800C00D0000EA0A400C00004D0A00002D088F
:1010C8002D09B80700000000000000010000000022
:1010D800000064000000000000020000000053004F
:1010E800000000005261772052656164696E673ABA
:1010F80020256409004D6170706564205265616443
:10110800696E673A2025640A005556204C6967685D
:101118007473206F6E20666F723A202564206D6F9D
:0C112800726520736563732E2E2E0A0082
:00000001FF
