:100000000C9434000C9451000C9451000C94510049
:100010000C9451000C9451000C9451000C9451001C
:100020000C9451000C9451000C9451000C9451000C
:100030000C9451000C9451000C9451000C945100FC
:100040000C9451000C9451000C9451000C945100EC
:100050000C9451000C9451000C9451000C945100DC
:100060000C9451000C94510011241FBECFEFD4E02A
:10007000DEBFCDBF11E0A0E0B1E0E0EEF3E002C0F2
:1000800005900D92AC34B107D9F721E0ACE4B1E0B2
:1000900001C01D92A235B207E1F70E9460010C94E5
:1000A000EE010C940000AF92BF92CF92DF92EF92DC
:1000B000FF920F931F93CF93DF936C017B01009707
:1000C00029F18B01C0E0D0E0580180914C01909162
:1000D0004D010E947E01F80181938F018A3011F059
:1000E0008D3011F4F5010EC060914E0170914F01F9
:1000F00090E00E94BC012196CC15DD0529F7F7019F
:10010000EC0FFD1F10828C2F8F5F01C080E0DF910C
:10011000CF911F910F91FF90EF90DF90CF90BF9004
:10012000AF900895419887FD419A409886FD409A86
:100130002A9885FD2A9A299884FD299A289883FD72
:10014000289A5F9882FD5F9A5E9881FD5E9A5D981D
:1001500080FD5D9A429A85E08A95F1F70000429809
:1001600085E08A95F1F700000895439A42980C942F
:1001700092000F931F93CF93DF9300D0CDB7DEB7DC
:100180008C011A821982E981FA81E00FF11F8081C6
:100190008823A1F0E981FA81E00FF11F80810E949C
:1001A000B50029813A812F5F3F4F3A8329838FE33E
:1001B00091E00197F1F700C00000E5CF0F900F909C
:1001C000DF91CF911F910F910895439842980C941D
:1001D00092002FEF81EE94E0215080409040E1F7B3
:1001E00000C0000080E30E94E5008FE39CE90197D6
:1001F000F1F700C0000080E30E94E5008FE193E08A
:100200000197F1F700C0000080E30E94E5008FE154
:1002100093E00197F1F700C0000088E30E94E50039
:100220008FE391E00197F1F700C0000088E00E94A1
:10023000E5008FE391E00197F1F700C0000081E055
:100240000E94E5008FE79EE30197F1F700C00000F0
:1002500086E00E94E5008FE391E00197F1F700C08E
:1002600000008CE00E94E5008FE391E00197F1F738
:1002700000C000000895CF93C82F8A3019F48DE094
:100280000E943B018091C00085FFFCCFC093C60057
:1002900080E090E0CF9108958091C00087FFFCCF6F
:1002A0008091C60090E008951092C50087E6809383
:1002B000C40086E08093C20088E18093C100089565
:1002C000399A389A229A219A209A579A569A559A88
:1002D0003A9A3B9A0E94E9008EE191E00E94B900AF
:1002E00080EC0E94E5008FE391E00197F1F700C0F8
:1002F00000008DE091E00E94B900FFCFCF93DF9323
:10030000EC012B8120FF33C026FF0AC02F7B2B83FB
:100310008E819F8101969F838E838A8190E029C080
:1003200022FF0FC0E881F9818081992787FD909590
:10033000009719F420622B831AC03196F983E88361
:100340000EC0EA85FB85099597FF09C02B810196B0
:1003500011F480E101C080E2822B8B8308C02E81E2
:100360003F812F5F3F4F3F832E83992702C08FEF3E
:100370009FEFDF91CF9108950F931F93CF93DF935A
:10038000182F092FEB018B8181FD03C08FEF9FEFA9
:1003900020C082FF10C04E815F812C813D814217B9
:1003A00053077CF4E881F9819F012F5F3F4F398328
:1003B0002883108306C0E885F985812F0995892B4C
:1003C00029F72E813F812F5F3F4F3F832E83812F5F
:1003D000902FDF91CF911F910F910895F894FFCF47
:1003E0004F63742033312C20323031350048617036
:1003F00070792048616C6C6F7765656E21002045CF
:1004000078706F7375726520556E697420200000D6
:100410000000010000000000004C0100000000008E
:0C04200002000000003B01000000000092
:00000001FF
