:100000000C944B000C9468000C9468000C946800ED
:100010000C9468000C9468000C9468000C946800C0
:100020000C9468000C9468000C9468000C946800B0
:100030000C9468000C9468000C9468000C946800A0
:100040000C9468000C9468000C9468000C94680090
:100050000C9468000C9468000C9468000C94680080
:100060000C9468000C946800084AD73B3BCE016EA4
:1000700084BCBFFDC12F3D6C74319ABD56833DDAFF
:100080003D00C77F11BED9E4BB4C3E916BAAAABE0E
:10009000000000803F0011241FBECFEFD4E0DEBF80
:1000A000CDBF11E0A0E0B1E0E2E0F8E102C00590D0
:1000B0000D92AA35B107D9F721E0AAE5B1E001C058
:1000C0001D92AE37B207E1F70E9420050C94FF0B9A
:1000D0000C940000E0E8F0E08081826A8083E1E82F
:1000E000F0E080818C61808382EE94E090938700C1
:1000F00080938600229A08954F925F926F927F922A
:10010000AF92BF92CF92DF92EF92FF920F931F9325
:10011000CF93DF9300D000D0CDB7DEB769837A8369
:100120008B839C8329013A01C601B5012D893E8943
:100130004F89588DA980BA80CB80DC802A193B0971
:100140004C095D096E197F09800B910B0E946608AE
:100150004A185B086C087D08A30192010E9476088A
:100160002E0D3F1D401F511FCA01B9010F900F9066
:100170000F900F90DF91CF911F910F91FF90EF9013
:10018000DF90CF90BF90AF907F906F905F904F9037
:100190000895CF92DF92EF92FF926B017C010E9453
:1001A000200720E030E044E352EC0E94810687FF04
:1001B00006C033EDC32EDD24DA94ED2CFD2CC701EF
:1001C000B6010E94200720E030E044E352E40E94A0
:1001D000F50718162CF42DE2C22ED12CE12CF12CAF
:1001E000C701B6010E94200720E030E044E352E45A
:1001F0000E94BB052FE135E84BEA5FE30E9400084F
:100200006B017C0120E030E04CE052E40E9481066A
:1002100087FD11C020E030E044EB52E4C701B60195
:100220000E94F50718166CF4C12CD12C8EEBE82E29
:1002300082E4F82E06C0C12CD12C90EFE92E91E477
:10024000F92EC701B6010E94F20670938B006093ED
:100250008A00C701B6010E94ED06FF90EF90DF9083
:10026000CF900895CF93C82F8A3019F48DE00E9463
:1002700032018091C00085FFFCCFC093C60080E0B2
:1002800090E0CF9108958091C00087FFFCCF8091CE
:10029000C60090E008951092C50087E68093C400E0
:1002A00086E08093C20088E18093C1000895AF92F8
:1002B000BF92CF92DF92EF92FF920F931F93CF9353
:1002C000DF936C017B01009729F18B01C0E0D0E046
:1002D000580180917801909179010E94D108F8012C
:1002E00081938F018A3011F08D3011F4F5010EC029
:1002F00060917A0170917B0190E00E940F09219634
:10030000CC15DD0529F7F701EC0FFD1F10828C2FAE
:100310008F5F01C080E0DF91CF911F910F91FF901F
:10032000EF90DF90CF90BF90AF900895AF92BF92C3
:10033000DF92EF92FF920F931F93CF93DF9300D042
:10034000CDB7DEB7182FD62E80ED49835A830E9491
:100350009704812F0E94010585E38A95F1F700003B
:1003600081ED0E9497044981A42E5A81B52E00E0A8
:1003700010E0ED2CF12CE1E0EE1AF1080D1580F4FF
:100380000E151F0519F40E94180502C00E941005E1
:10039000F50180830F5F1F4FFFEFAF1ABF0AEECF4B
:1003A0000E94FC048D2D0F900F90DF91CF911F9133
:1003B0000F91FF90EF90DF90BF90AF900895611183
:1003C0000C94960180E00895AB0161E00C949601D5
:1003D000EF92FF920F931F93CF93DF9300D0CDB78F
:1003E000DEB7082F162F662309F180ED49835A8363
:1003F0000E949704802F0E9401054981042FE42E5A
:100400005A81F52E8E2D801B811730F4F7018191D2
:100410007F010E940105F6CF0F900F90DF91CF91E1
:100420001F910F91FF90EF900C94FC040F900F9090
:10043000DF91CF911F910F91FF90EF900895CF938F
:10044000DF931F92CDB7DEB76983AE014F5F5F4F79
:1004500061E00E94E8010F90DF91CF9108950F9322
:100460001F93CF93DF9300D01F92CDB7DEB7182F25
:10047000062F1982BE016F5F7F4F2B834A830E9434
:10048000E4012B814A81882309F1602F70E0641B0D
:1004900071096F5F7F4FE1E0F0E002C0EE0FFF1FD8
:1004A0004A95E2F73197062E01C0EE0F0A94EAF75B
:1004B00001C0220F6A95EAF76E2F60958981682343
:1004C000E2236E2B6983812F0E941F020F900F90F1
:1004D0000F90DF91CF911F910F910895FF920F938D
:1004E0001F93CF93DF9300D0CDB7DEB7F62E8901EF
:1004F000442339F1BE016F5F7F4F4A830E94E401BC
:100500004A818823F9F06F2D70E0641B71096F5FD9
:100510007F4FE1E0F0E002C0EE0FFF1F4A95E2F7E7
:100520003197062E01C0EE0F0A94EAF749814E2357
:1005300050E002C0559547956A95E2F7F80140836F
:1005400001C080E00F900F90DF91CF911F910F912C
:10055000FF900895FF920F931F93CF93DF931F9205
:10056000CDB7DEB7F62E8A01BE016F5F7F4F0E94C6
:10057000E40121E030E001C0220FFA94EAF799810A
:100580009223F80190830F90DF91CF911F910F91EB
:10059000FF90089541110C942F0208950F931F931B
:1005A000CF93DF9300D0CDB7DEB7182F062FBE0153
:1005B0006F5F7F4F4A830E94E40189814A8121E075
:1005C00030E0002E01C0220F0A94EAF7442319F00C
:1005D000682F622B03C0622F609568236983812F87
:1005E0000E941F020F900F90DF91CF911F910F91EA
:1005F000089540E066E08BE60C94CE0241E066E0B0
:100600008BE60C94CE022AE631E046E066E085E710
:100610000E946E0290916A0181E0943309F080E0BB
:1006200008952FEF81EE94E0215080409040E1F753
:1006300000C000000E94F9028FE39CE90197F1F7E6
:1006400000C0000021E043E062E08BE60E942F0240
:1006500023E043E062E08AE10E942F0264E089E146
:100660000E941F0220E042E064E08BE10E942F0222
:1006700020E042E064E08CE10C942F028F929F9284
:10068000AF92BF92CF92DF92EF92FF920F931F93A0
:10069000CF93DF93EC015B016A0149014AE651E027
:1006A0006EE08BE30E94DF0120916A0180916B0173
:1006B00090E0922B9983888320916C0180916D0149
:1006C00090E0922BF5019183808320916E018091BF
:1006D0006F0190E0922BF60191838083209172014B
:1006E0008091730190E0922BF4019183808320919B
:1006F00074018091750190E0922BF80191838083C1
:10070000209176018091770190E0922BF7019183FF
:100710008083DF91CF911F910F91FF90EF90DF9039
:10072000CF90BF90AF909F908F9008952F923F925F
:100730004F925F926F927F928F929F92AF92BF92F1
:10074000CF92DF92EF92FF920F931F93CF93DF939D
:10075000CDB7DEB72C970FB6F894DEBF0FBECDBF76
:100760003C014B015A016901280117011C861B86B7
:100770001A86198618861F821E821D821C821B8281
:100780001A821982CE0101967C018E010D5F1F4FE6
:100790009E012B5F3F4FAE01495F5F4FBE01675F18
:1007A0007F4F0A960E943E036B857C856E5E7F4F6D
:1007B000882777FD8095982F0E94200720E030E061
:1007C00040E858E30E940008F3016083718382834C
:1007D000938369857A85882777FD8095982F0E9475
:1007E000200720E030E040E858E30E940008F401D0
:1007F00060837183828393836F817885882777FDF7
:100800008095982F0E94200720E030E040E858E3D0
:100810000E940008F50160837183828393836D8158
:100820007E81665D7F4F882777FD8095982F0E9497
:10083000200723E333E343E851E40E948506F601F1
:1008400060837183828393836B817C81695071099A
:10085000882777FD8095982F0E94200723E333E3B4
:1008600043E851E40E948506F2016083718382832C
:10087000938369817A81635E7F4F882777FD8095B6
:10088000982F0E94200723E333E343E851E40E94BA
:100890008506F10160837183828393832C960FB662
:1008A000F894DEBF0FBECDBFDF91CF911F910F91A6
:1008B000FF90EF90DF90CF90BF90AF909F908F9080
:1008C0007F906F905F904F903F902F90089510927F
:1008D000B90088E18093B800089524E630E0809163
:1008E000BC0087FD0AC02115310539F085E08A95E5
:1008F000F1F7000021503109F2CF81E0232B09F4F8
:1009000080E0089524E630E08091BC0084FF0AC0B6
:100910002115310539F085E08A95F1F70000215065
:100920003109F2CF81E0232B09F480E00895CF93C1
:10093000C82F84EA8093BC000E946D048823C9F00C
:100940009091B900987F983021F0903111F081E0BA
:1009500011C0C093BB0084E88093BC000E946D046A
:10096000882339F08091B900887F883111F0803474
:1009700071F780E0CF910895EF92FF920F931F934C
:10098000CF93DF93182FC0EDD7E004EA84E8F82E68
:1009900094E9E92E0093BC000E946D04811102C00D
:1009A00080E021C09091B900987F983011F090318B
:1009B00089F71093BB00F092BC000E946D0488235D
:1009C00079F39091B900987F903211F0983551F4F5
:1009D000E092BC000E9482048823E1F2209701F398
:1009E0002197D8CF81E0DF91CF911F910F91FF9098
:1009F000EF9008950C94970484E98093BC000C94C4
:100A000082048093BB0084E88093BC000E946D0444
:100A10009091B900987F81E0983209F480E00895C0
:100A200084EC8093BC000E946D048091BB0008950B
:100A300084E88093BC000E946D048091BB000895FF
:100A4000CF92DF92EF92FF920F931F93CF93DF939A
:100A500000D000D0CDB7DEB70E944B0180E091E01E
:100A600090937901809378018EE091E090937B01DF
:100A700080937A010E9411030E946A000E9403037E
:100A8000882309F468C08CE191E00E94550955E380
:100A9000C52E51E0D52E40E6E42E41E0F42E06E6C8
:100AA00011E02CE531E04AE551E068E671E08EE5C1
:100AB00091E00E943E0360915A0170915B0188278A
:100AC00077FD8095982F0E9420079B01AC016091D3
:100AD000680170916901882777FD8095982F298397
:100AE0003A834B835C830E94200729813A814B81A2
:100AF0005C810E942E0620E030E044E353E40E9433
:100B000000082BED3FE049E450E40E9485060E9476
:100B1000ED06162F772767FD7095872F972F0E9478
:100B2000C9009F938F937F936F93812F992787FDA0
:100B300090959F931F93809169018F938091680195
:100B40008F93DF92CF920E9441090FB6F894DEBFD7
:100B50000FBECDBFA0CF80E090E00F900F900F9020
:100B60000F90DF91CF911F910F91FF90EF90DF9049
:100B7000CF9008955058BB27AA270ED0FCC1EDD1C5
:100B800030F0F2D120F031F49F3F11F41EF4BDC1DA
:100B90000EF4E095E7FBB3C1E92FFED180F3BA175D
:100BA000620773078407950718F071F49EF516C263
:100BB0000EF4E0950B2EBA2FA02D0B01B901900178
:100BC0000C01CA01A0011124FF27591B99F0593FBC
:100BD00050F4503E68F11A16F040A22F232F342F04
:100BE0004427585FF3CF469537952795A795F04052
:100BF0005395C9F77EF41F16BA0B620B730B840B67
:100C0000BAF09150A1F0FF0FBB1F661F771F881F1E
:100C1000C2F70EC0BA0F621F731F841F48F4879576
:100C200077956795B795F7959E3F08F0B3CF939565
:100C3000880F08F09927EE0F9795879508958DD125
:100C400058F080E891E009F49EEF8ED128F040E85A
:100C500051E059F45EEF09C058C1C0C1E92FE078F6
:100C60009BD168F3092E052AC1F3261737074807D9
:100C7000590738F00E2E07F8E02569F0E025E0640A
:100C80000AC0EF6307F8009407FADB01B9019D0180
:100C9000DC01CA01AD01EF9347D06DD10AD05F915D
:100CA000552331F02BED3FE049E450FD49EC63CF93
:100CB0000895DF93DD27B92FBF7740E85FE316166D
:100CC000170648075B0710F4D92F93D19F938F9392
:100CD0007F936F93F8D1E8E6F0E01AD14CD12F91D1
:100CE0003F914F915F9198D1DD2349F09058A2EA4E
:100CF0002AED3FE049EC5FE3D0785D274DDFDF91DF
:100D00003AC1D9D008F481E008950CD034C12CD177
:100D100040F023D130F021F45F3F19F0F0C05111C1
:100D20005EC1F3C039D198F39923C9F35523B1F3C8
:100D3000951B550BBB27AA2762177307840738F04A
:100D40009F5F5F4F220F331F441FAA1FA9F333D0A9
:100D50000E2E3AF0E0E830D091505040E695001C5D
:100D6000CAF729D0FE2F27D0660F771F881FBB1F19
:100D7000261737074807AB07B0E809F0BB0B802DF3
:100D8000BF01FF2793585F4F2AF09E3F510568F03F
:100D9000B6C025C15F3FECF3983EDCF386957795AE
:100DA0006795B795F7959F5FC9F7880F911D969541
:100DB000879597F90895E1E0660F771F881FBB1F9D
:100DC000621773078407BA0720F0621B730B840B4A
:100DD000BA0BEE1F88F7E095089504D06894B1111E
:100DE000FEC00895E1D088F09F5790F0B92F992761
:100DF000B751A0F0D1F0660F771F881F991F1AF026
:100E0000BA95C9F712C0B13081F0E8D0B1E00895C9
:100E1000E5C0672F782F8827B85F39F0B93FCCF34A
:100E2000869577956795B395D9F73EF4909580951B
:100E3000709561957F4F8F4F9F4F0895E89409C03B
:100E400097FB3EF490958095709561957F4F8F4FFD
:100E50009F4F9923A9F0F92F96E9BB279395F69513
:100E6000879577956795B795F111F8CFFAF4BB0F91
:100E700011F460FF1BC06F5F7F4F8F4F9F4F16C0F5
:100E8000882311F096E911C0772321F09EE8872F7F
:100E9000762F05C0662371F096E8862F70E060E03B
:100EA0002AF09A95660F771F881FDAF7880F9695B4
:100EB000879597F90895990F0008550FAA0BE0E858
:100EC000FEEF16161706E807F907C0F0121613060C
:100ED000E407F50798F0621B730B840B950B39F44C
:100EE0000A2661F0232B242B252B21F408950A26B2
:100EF00009F4A140A6958FEF811D811D089597F9F2
:100F00009F6780E870E060E008959FEF80EC0895AF
:100F1000DF93CF931F930F93FF92EF92DF927B01AA
:100F20008C01689405C0DA2EEF0176D0FE01E894BA
:100F3000A5912591359145915591AEF3EF012CDEA8
:100F4000FE019701A801DA9479F7DF90EF90FF9006
:100F50000F911F91CF91DF91089500240A941616E6
:100F6000170618060906089500240A941216130697
:100F7000140605060895092E0394000C11F4882325
:100F800052F0BB0F40F4BF2B11F460FF04C06F5F41
:100F90007F4F8F4F9F4F089557FD9058440F551F17
:100FA00059F05F3F71F04795880F97FB991F61F0EB
:100FB0009F3F79F087950895121613061406551F62
:100FC000F2CF4695F1DF08C0161617061806991FCE
:100FD000F1CF86957105610508940895E894BB27C3
:100FE00066277727CB0197F9089565DF08F48FEF1F
:100FF00008959B01AC0160E070E080E89FE385CE3E
:101000000BD0B9CFAADF28F0AFDF18F0952309F095
:1010100076CF7BCF1124E3CFBFDFA0F3959FD1F331
:10102000950F50E0551F629FF001729FBB27F00D96
:10103000B11D639FAA27F00DB11DAA1F649F6627EB
:10104000B00DA11D661F829F2227B00DA11D621F3A
:10105000739FB00DA11D621F839FA00D611D221FF4
:10106000749F3327A00D611D231F849F600D211DD8
:10107000822F762F6A2F11249F5750408AF0E1F07B
:1010800088234AF0EE0FFF1FBB1F661F771F881FC4
:1010900091505040A9F79E3F510570F030CF9FCF3F
:1010A0005F3FECF3983EDCF3869577956795B795AF
:1010B000F795E7959F5FC1F7FE2B880F911D9695D9
:1010C000879597F908959B01AC019ACFDB018F9327
:1010D0009F930E949508BF91AF91A29F800D911D93
:1010E000A39F900DB29F900D11240895052E97FB9C
:1010F0001EF400940E948D0857FD07D00E94A0089E
:1011000007FC03D04EF40C948D0850954095309513
:1011100021953F4F4F4F5F4F089590958095709563
:1011200061957F4F8F4F9F4F08950E94C208A59FE2
:10113000900DB49F900DA49F800D911D11240895D2
:10114000A1E21A2EAA1BBB1BFD010DC0AA1FBB1FCB
:10115000EE1FFF1FA217B307E407F50720F0A21B3D
:10116000B30BE40BF50B661F771F881F991F1A94AA
:1011700069F760957095809590959B01AC01BD01D4
:10118000CF010895A29FB001B39FC001A39F700D2E
:10119000811D1124911DB29F700D811D1124911D7F
:1011A0000895CF93DF93EC012B8120FF33C026FFFE
:1011B0000AC02F7B2B838E819F8101969F838E8314
:1011C0008A8190E029C022FF0FC0E881F9818081E7
:1011D000992787FD9095009719F420622B831AC0F8
:1011E0003196F983E8830EC0EA85FB85099597FF60
:1011F00009C02B81019611F480E101C080E2822BAD
:101200008B8308C02E813F812F5F3F4F3F832E830A
:10121000992702C08FEF9FEFDF91CF9108950F9331
:101220001F93CF93DF93182F092FEB018B8181FD43
:1012300003C08FEF9FEF20C082FF10C04E815F81FF
:101240002C813D81421753077CF4E881F9819F018D
:101250002F5F3F4F39832883108306C0E885F985C7
:10126000812F0995892B29F72E813F812F5F3F4FD1
:101270003F832E83812F902FDF91CF911F910F916C
:101280000895A0E0B0E0E7E4F9E00C94D80BFE018B
:10129000359661917191AF0180917A0190917B01B6
:1012A0000E948209E2E00C94F40B0F931F93CF93FA
:1012B000DF93E0917A01F0917B01238121FF1BC034
:1012C000EC0100E010E0899160917A0170917B015E
:1012D000DB011896ED91FC911997882331F009955F
:1012E000892B89F30FEF1FEFEECF8AE00995892B49
:1012F00011F4C80102C08FEF9FEFDF91CF911F91D2
:101300000F910895ACE0B0E0E8E8F9E00C94C80B68
:101310007C016B018A01FC0117821682838181FFA7
:10132000BDC1CE0101964C01F7019381F60193FDF9
:10133000859193FF81916F01882309F4ABC18532B8
:1013400039F493FD859193FF81916F01853229F4E2
:10135000B70190E00E940F09E7CF512C312C20E01B
:101360002032A0F48B3269F030F4803259F08332AD
:1013700069F420612CC08D3239F0803339F421605A
:1013800026C02260246023C0286021C027FD27C01A
:1013900030ED380F3A3078F426FF06C0FAE05F9E51
:1013A000300D1124532E13C08AE0389E300D1124C5
:1013B000332E20620CC08E3221F426FD6BC12064D6
:1013C00006C08C3611F4206802C0883641F4F6015C
:1013D00093FD859193FF81916F018111C1CF982F6A
:1013E0009F7D9554933028F40C5F1F4FFFE3F983E2
:1013F0000DC0833631F0833771F0833509F05BC05F
:1014000022C0F801808189830E5F1F4F44244394DA
:10141000512C540115C03801F2E06F0E711CF80117
:10142000A080B18026FF03C0652D70E002C06FEF81
:101430007FEFC5012C870E945F0B2C0183012C8557
:101440002F77222E17C03801F2E06F0E711CF801C1
:10145000A080B18026FF03C0652D70E002C06FEF51
:101460007FEFC5012C870E94540B2C012C8520682E
:10147000222E830123FC1BC0832D90E048165906C1
:10148000B0F4B70180E290E00E940F093A94F4CFE3
:10149000F50127FC859127FE81915F01B70190E05E
:1014A0000E940F0931103A94F1E04F1A510841148B
:1014B000510471F7E5C0843611F0893639F5F80129
:1014C00027FF07C060817181828193810C5F1F4F6C
:1014D00008C060817181882777FD8095982F0E5F05
:1014E0001F4F2F76B22E97FF09C09095809570956B
:1014F00061957F4F8F4F9F4F2068B22E2AE030E0DA
:10150000A4010E946A0BA82EA81844C0853729F4AC
:101510002F7EB22E2AE030E025C0F22FF97FBF2EB9
:101520008F36C1F018F4883579F0B4C0803719F0DF
:10153000883721F0AFC02F2F2061B22EB4FE0DC02E
:101540008B2D8460B82E09C024FF0AC09F2F96609F
:10155000B92E06C028E030E005C020E130E002C02E
:1015600020E132E0F801B7FE07C06081718182811D
:1015700093810C5F1F4F06C06081718180E090E015
:101580000E5F1F4FA4010E946A0BA82EA818FB2D06
:10159000FF77BF2EB6FE0BC02B2D2E7FA51450F467
:1015A000B4FE0AC0B2FC08C02B2D2E7E05C07A2CDA
:1015B0002B2D03C07A2C01C0752C24FF0DC0FE0119
:1015C000EA0DF11D8081803311F4297E09C022FFCC
:1015D00006C07394739404C0822F867809F07394C4
:1015E00023FD13C020FF06C05A2C731418F4530CAB
:1015F0005718732C731468F4B70180E290E02C87BD
:101600000E940F0973942C85F5CF731410F43718CA
:1016100001C0312C24FF12C0B70180E390E02C8779
:101620000E940F092C8522FF17C021FF03C088E507
:1016300090E002C088E790E0B7010CC0822F867866
:1016400059F021FD02C080E201C08BE227FD8DE24E
:10165000B70190E00E940F09A51438F4B70180E3A8
:1016600090E00E940F095A94F7CFAA94F401EA0D72
:10167000F11D8081B70190E00E940F09A110F5CF04
:10168000332009F451CEB70180E290E00E940F09A7
:101690003A94F6CFF7018681978102C08FEF9FEFD2
:1016A0002C96E2E10C94E40BFC0105906150704033
:1016B0000110D8F7809590958E0F9F1F0895FC011B
:1016C0006150704001900110D8F7809590958E0F71
:1016D0009F1F0895FA01AA27283051F1203181F186
:1016E000E8946F936E7F6E5F7F4F8F4F9F4FAF4F2A
:1016F000B1E03ED0B4E03CD0670F781F891F9A1F3D
:10170000A11D680F791F8A1F911DA11D6A0F711DF0
:10171000811D911DA11D20D009F468943F912AE0FC
:10172000269F11243019305D3193DEF6CF010895E4
:10173000462F4770405D4193B3E00FD0C9F7F6CF15
:10174000462F4F70405D4A3318F0495D31FD4052DD
:10175000419302D0A9F7EACFB4E0A6959795879573
:1017600077956795BA95C9F7009761057105089552
:101770009B01AC010A2E06945795479537952795FE
:10178000BA95C9F7620F731F841F951FA01D089596
:101790002F923F924F925F926F927F928F929F9281
:1017A000AF92BF92CF92DF92EF92FF920F931F936F
:1017B000CF93DF93CDB7DEB7CA1BDB0B0FB6F89420
:1017C000DEBF0FBECDBF09942A88398848885F8460
:1017D0006E847D848C849B84AA84B984C884DF80D1
:1017E000EE80FD800C811B81AA81B981CE0FD11DB5
:1017F0000FB6F894DEBF0FBECDBFED010895F8948B
:02180000FFCF18
:101802000000000100000000000043010000000091
:101812000002000000003201000000005468652050
:101822004D50553630353020696E697469616C6986
:101832007A65642100582D5261773A256420582D2B
:101842004465673A2564CB9A20582D436F6E7665BE
:0A185200727465643A256C640A00A4
:00000001FF
