:100000000C9434000C9451000C9451000C94510049
:100010000C9451000C9451000C9451000C9451001C
:100020000C9451000C9451000C9451000C9451000C
:100030000C9451000C9451000C9451000C945100FC
:100040000C9451000C9451000C9451000C945100EC
:100050000C9451000C9451000C9451000C945100DC
:100060000C9451000C94510011241FBECFEFD4E02A
:10007000DEBFCDBF11E0A0E0B1E0E6E7F4E002C0F2
:1000800005900D92A238B107D9F721E0A2E8B1E0BE
:1000900001C01D92A838B207E1F70E9478010C94C4
:1000A00039020C940000CF93C82F8A3019F48DE0E8
:1000B0000E9453008091C00085FFFCCFC093C60012
:1000C00080E090E0CF9108958091C00087FFFCCF41
:1000D0008091C60090E008951092C50087E6809355
:1000E000C40086E08093C20088E18093C100089537
:1000F000AF92BF92CF92DF92EF92FF920F931F9336
:10010000CF93DF936C017B01009729F18B01C0E055
:10011000D0E0580180918201909183010E94C90131
:10012000F80181938F018A3011F08D3011F4F501BF
:100130000EC0609184017091850190E00E940702D9
:100140002196CC15DD0529F7F701EC0FFD1F108274
:100150008C2F8F5F01C080E0DF91CF911F910F91B5
:10016000FF90EF90DF90CF90BF90AF900895579A97
:10017000569A559A549A219A209A229A08955F98ED
:1001800087FD5F9A5E9886FD5E9A5D9885FD5D9A13
:100190005C9884FD5C9A299A85E08A95F1F70000C5
:1001A000299885E08A95F1F700000895CF93C82F2C
:1001B0002A98289A29980E94BF008C2F8295807FC8
:1001C000CF910C94BF00CF93C82F2A9828982998D4
:1001D0000E94BF008C2F8295807FCF910C94BF002E
:1001E000579828982A9A299A85E08A95F1F700006D
:1001F00089B1299895E09A95F1F70000299A95E040
:100200009A95F1F70000299895E09A95F1F700008A
:1002100087FDE9CF2A98579A08952FEF81EE94E051
:10022000215080409040E1F700C0000028982998B4
:100230002A9880E30E94BF008FE39CE90197F1F7C1
:1002400000C0000080E30E94BF008FE193E00197AF
:10025000F1F700C0000080E30E94BF008FE391E04F
:100260000197F1F700C0000088E20E94BF000E94E1
:10027000F00088E20E94E3000E94F00088E00E9403
:10028000E3000E94F00081E00E94E3000E94F00081
:1002900086E00E94E3000E94F0008CE00C94E300F2
:1002A0000F931F93CF93DF9300D0CDB7DEB78C01B0
:1002B0001A821982E981FA81E00FF11F8081882377
:1002C00081F00E94F000E981FA81E00FF11F808146
:1002D0000E94D60029813A812F5F3F4F3A832983BC
:1002E000E9CF0F900F90DF91CF911F910F9108955B
:1002F0000E94B7000E940D0183E391E00E9450012B
:100300002FEF87EA91E6215080409040E1F700C04E
:1003100000000E94F00081E00E94E30082E291E090
:100320000E9450010E94F00080EC0E94E30081E1F5
:1003300091E00E9450012FEF83E294EF2150804022
:100340009040E1F700C000000E94F00081E00E94B0
:10035000E30080E691E00E9450010E94F00080ECF2
:100360000E94E3008BE691E00E9450010E94F000A1
:100370002FEF87EA91E6215080409040E1F700C0DE
:10038000000081E00E94E30086E791E00E945001B6
:10039000FFCFCF93DF93EC012B8120FF33C026FFEB
:1003A0000AC02F7B2B838E819F8101969F838E8332
:1003B0008A8190E029C022FF0FC0E881F981808105
:1003C000992787FD9095009719F420622B831AC016
:1003D0003196F983E8830EC0EA85FB85099597FF7E
:1003E00009C02B81019611F480E101C080E2822BCB
:1003F0008B8308C02E813F812F5F3F4F3F832E8329
:10040000992702C08FEF9FEFDF91CF9108950F934F
:100410001F93CF93DF93182F092FEB018B8181FD61
:1004200003C08FEF9FEF20C082FF10C04E815F811D
:100430002C813D81421753077CF4E881F9819F01AB
:100440002F5F3F4F39832883108306C0E885F985E5
:10045000812F0995892B29F72E813F812F5F3F4FEF
:100460003F832E83812F902FDF91CF911F910F918A
:060470000895F894FFCF8F
:1004760020204F63742033312C2032303135202038
:1004860000202056657273696F6E20312E30202051
:100496002000204578706F7375726520556E6974FB
:1004A6002020002020416C64616E697320566967C4
:1004B6006F20200000000001000000000000640022
:1004C60000000000000200000000530000000000D1
:1004D6004C78203D203135754820004378203D205A
:1004E60031353075460048656C6C6F204A656E6E16
:0204F6002100E3
:00000001FF
