:100000000C9434000C9451000C9451000C94510049
:100010000C9451000C9451000C9451000C9451001C
:100020000C9451000C9451000C9451000C9451000C
:100030000C9451000C9451000C9451000C945100FC
:100040000C9451000C9451000C9451000C945100EC
:100050000C9451000C9451000C9451000C945100DC
:100060000C9451000C94510011241FBECFEFD4E02A
:10007000DEBFCDBF11E0A0E0B1E0E2EFF7E002C0EB
:1000800005900D92A235B107D9F721E0A2E5B1E0C4
:1000900001C01D92A835B207E1F70E94B7000C9489
:1000A000F7030C940000AF92BF92CF92DF92EF92D1
:1000B000FF920F931F93CF93DF936C017B01009707
:1000C00029F18B01C0E0D0E058018091520190915C
:1000D00053010E94F600F80181938F018A3011F0DC
:1000E0008D3011F4F5010EC06091540170915501ED
:1000F00090E00E9434012196CC15DD0529F7F70127
:10010000EC0FFD1F10828C2F8F5F01C080E0DF910C
:10011000CF911F910F91FF90EF90DF90CF90BF9004
:10012000AF900895CF93C82F8A3019F48DE00E94C4
:1001300092008091C00085FFFCCFC093C60080E094
:1001400090E0CF9108958091C00087FFFCCF80910F
:10015000C60090E008951092C50087E68093C40021
:1001600086E08093C20088E18093C1000895CF9318
:10017000DF93CDB7DEB7E2970FB6F894DEBF0FBEC0
:10018000CDBF0E94AB008EE091E09093550180932B
:10019000540180E091E0909353018093520114B890
:1001A0008CE1C82E81E0D82E8E010F5F1F4F99E39E
:1001B000E92E91E0F92E6EE071E083E60E94920054
:1001C000DF92CF920E946601B80182E390E00E9424
:1001D00053001F930F93FF92EF920E9466010F90BE
:1001E0000F900F900F900F900F90E5CFCF93DF936C
:1001F000EC012B8120FF33C026FF0AC02F7B2B830D
:100200008E819F8101969F838E838A8190E029C091
:1002100022FF0FC0E881F9818081992787FD9095A1
:10022000009719F420622B831AC03196F983E88372
:100230000EC0EA85FB85099597FF09C02B810196C1
:1002400011F480E101C080E2822B8B8308C02E81F3
:100250003F812F5F3F4F3F832E83992702C08FEF4F
:100260009FEFDF91CF9108950F931F93CF93DF936B
:10027000182F092FEB018B8181FD03C08FEF9FEFBA
:1002800020C082FF10C04E815F812C813D814217CA
:1002900053077CF4E881F9819F012F5F3F4F398339
:1002A0002883108306C0E885F985812F0995892B5D
:1002B00029F72E813F812F5F3F4F3F832E83812F70
:1002C000902FDF91CF911F910F910895A0E0B0E0A2
:1002D000ECE6F1E00C94D003FE013596619171914A
:1002E000AF0180915401909155010E947A01E2E0A2
:1002F0000C94EC03ACE0B0E0E0E8F1E00C94C00357
:100300007C016B018A01FC0117821682838181FFC7
:10031000BDC1CE0101964C01F7019381F60193FD19
:10032000859193FF81916F01882309F4ABC18532D8
:1003300039F493FD859193FF81916F01853229F402
:10034000B70190E00E943401E7CF512C312C20E01E
:100350002032A0F48B3269F030F4803259F08332CD
:1003600069F420612CC08D3239F0803339F421607A
:1003700026C02260246023C0286021C027FD27C03A
:1003800030ED380F3A3078F426FF06C0FAE05F9E71
:10039000300D1124532E13C08AE0389E300D1124E5
:1003A000332E20620CC08E3221F426FD6BC12064F6
:1003B00006C08C3611F4206802C0883641F4F6017C
:1003C00093FD859193FF81916F018111C1CF982F8A
:1003D0009F7D9554933028F40C5F1F4FFFE3F98302
:1003E0000DC0833631F0833771F0833509F05BC07F
:1003F00022C0F801808189830E5F1F4F44244394FB
:10040000512C540115C03801F2E06F0E711CF80137
:10041000A080B18026FF03C0652D70E002C06FEFA1
:100420007FEFC5012C870E9457032C0183012C8587
:100430002F77222E17C03801F2E06F0E711CF801E1
:10044000A080B18026FF03C0652D70E002C06FEF71
:100450007FEFC5012C870E944C032C012C8520685E
:10046000222E830123FC1BC0832D90E048165906E1
:10047000B0F4B70180E290E00E9434013A94F4CFE6
:10048000F50127FC859127FE81915F01B70190E07E
:100490000E94340131103A94F1E04F1A510841148E
:1004A000510471F7E5C0843611F0893639F5F80149
:1004B00027FF07C060817181828193810C5F1F4F8C
:1004C00008C060817181882777FD8095982F0E5F25
:1004D0001F4F2F76B22E97FF09C09095809570958B
:1004E00061957F4F8F4F9F4F2068B22E2AE030E0FA
:1004F000A4010E946203A82EA81844C0853729F4DD
:100500002F7EB22E2AE030E025C0F22FF97FBF2ED9
:100510008F36C1F018F4883579F0B4C0803719F0FF
:10052000883721F0AFC02F2F2061B22EB4FE0DC04E
:100530008B2D8460B82E09C024FF0AC09F2F9660BF
:10054000B92E06C028E030E005C020E130E002C04E
:1005500020E132E0F801B7FE07C06081718182813D
:1005600093810C5F1F4F06C06081718180E090E035
:100570000E5F1F4FA4010E946203A82EA818FB2D36
:10058000FF77BF2EB6FE0BC02B2D2E7FA51450F487
:10059000B4FE0AC0B2FC08C02B2D2E7E05C07A2CFA
:1005A0002B2D03C07A2C01C0752C24FF0DC0FE0139
:1005B000EA0DF11D8081803311F4297E09C022FFEC
:1005C00006C07394739404C0822F867809F07394E4
:1005D00023FD13C020FF06C05A2C731418F4530CCB
:1005E0005718732C731468F4B70180E290E02C87DD
:1005F0000E94340173942C85F5CF731410F43718CE
:1006000001C0312C24FF12C0B70180E390E02C8799
:100610000E9434012C8522FF17C021FF03C088E50A
:1006200090E002C088E790E0B7010CC0822F867886
:1006300059F021FD02C080E201C08BE227FD8DE26E
:10064000B70190E00E943401A51438F4B70180E3AB
:1006500090E00E9434015A94F7CFAA94F401EA0D75
:10066000F11D8081B70190E00E943401A110F5CF07
:10067000332009F451CEB70180E290E00E943401AA
:100680003A94F6CFF7018681978102C08FEF9FEFF2
:100690002C96E2E10C94DC03FC0105906150704063
:1006A0000110D8F7809590958E0F9F1F0895FC013B
:1006B0006150704001900110D8F7809590958E0F91
:1006C0009F1F0895FA01AA27283051F1203181F1A6
:1006D000E8946F936E7F6E5F7F4F8F4F9F4FAF4F4A
:1006E000B1E03ED0B4E03CD0670F781F891F9A1F5D
:1006F000A11D680F791F8A1F911DA11D6A0F711D11
:10070000811D911DA11D20D009F468943F912AE01C
:10071000269F11243019305D3193DEF6CF01089504
:10072000462F4770405D4193B3E00FD0C9F7F6CF35
:10073000462F4F70405D4A3318F0495D31FD4052FD
:10074000419302D0A9F7EACFB4E0A6959795879593
:1007500077956795BA95C9F7009761057105089572
:100760009B01AC010A2E069457954795379527951E
:10077000BA95C9F7620F731F841F951FA01D0895B6
:100780002F923F924F925F926F927F928F929F92A1
:10079000AF92BF92CF92DF92EF92FF920F931F938F
:1007A000CF93DF93CDB7DEB7CA1BDB0B0FB6F89440
:1007B000DEBF0FBECDBF09942A88398848885F8480
:1007C0006E847D848C849B84AA84B984C884DF80F1
:1007D000EE80FD800C811B81AA81B981CE0FD11DD5
:1007E0000FB6F894DEBF0FBECDBFED010895F894AB
:0207F000FFCF39
:1007F20000000001000000000000A3000000000053
:10080200000200000000920000000000506C6561D0
:10081200736520656E74657220796F7572206C61E4
:100822007374206E616D653A000A0A0A596F752069
:10083200726573706F6E6465643A0A2025730A0AE2
:020842000A00AA
:00000001FF
