:100000000C9434000C9451000C9451000C94510049
:100010000C9451000C9451000C9451000C9451001C
:100020000C9451000C9451000C9451000C9451000C
:100030000C9451000C9451000C9451000C945100FC
:100040000C9451000C9451000C9451000C945100EC
:100050000C9451000C9451000C9451000C945100DC
:100060000C9451000C94510011241FBECFEFD4E02A
:10007000DEBFCDBF13E0A0E0B1E0EEEEF3E102C0E1
:1000800005900D92A438B107D9F723E0A4E8B3E0B6
:1000900001C01D92AF38B207E1F70E9490030C94A3
:1000A000F5090C9400000E94A4020E94FA028BE65B
:1000B00092E00E943D032FEF83ED90E321508040BA
:1000C0009040E1F700C000000E94DD0281E00E9444
:1000D000D0028AE592E00E943D030E94DD0280EC9E
:1000E0000E94D00289E492E00E943D030895CF92DD
:1000F000DF92EF92FF921F93CF93DF93CDB7DEB7DE
:100100002A970FB6F894DEBF0FBECDBF6B017C01FE
:100110000E94DD0281E00E94D00288E992E00E9404
:100120003D030E94DD0280EC0E94D002C701B601AF
:100130002CE330E040E050E00E942306122F4AE01A
:10014000BE016A5F7F4F822F90E00E9492060E945C
:10015000DD0289EA92E00E943D031A3030F40E94E9
:10016000DD0280EB92E00E943D030E94DD02CE01A1
:1001700006960E943D030E94DD0282EB92E00E94FF
:100180003D03C701B6012CE330E040E050E00E949F
:100190002306862F162F4AE0BE016F5F7F4F90E047
:1001A0000E9492061A3030F40E94DD0280EB92E049
:1001B0000E943D030E94DD02CE0101960E943D0394
:1001C0002A960FB6F894DEBF0FBECDBFDF91CF9158
:1001D0001F91FF90EF90DF90CF9008954F925F9224
:1001E0006F927F92AF92BF92CF92DF92EF92FF9287
:1001F0000F931F93CF93DF9300D000D0CDB7DEB71E
:1002000069837A838B839C8329013A01C601B501F6
:100210002D893E894F89588DA980BA80CB80DC809A
:100220002A193B094C095D096E197F09800B910B56
:100230000E94FF054A185B086C087D08A301920123
:100240000E9423062E0D3F1D401F511FCA01B901F8
:100250000F900F900F900F90DF91CF911F910F9102
:10026000FF90EF90DF90CF90BF90AF907F906F9016
:100270005F904F900895882331F095E09A95F1F7BB
:1002800000008150F8CF08958F929F92AF92BF9255
:10029000CF92DF92EF92FF921F93CF93DF9300D024
:1002A00000D0CDB7DEB76B017C0149015A0160E295
:1002B00071EA87E090E0A70196010E942306122FC1
:1002C000A7019601C501B4010E94FF0528EE33E0A5
:1002D00040E050E00E942306C12CD12C7601C216CA
:1002E000D306E406F506B4F45A9A812F29833A839B
:1002F0004B835C830E943B015A98812F0E943B01F3
:100300008FEFC81AD80AE80AF80A5C814B813A8153
:100310002981E5CF0F900F900F900F90DF91CF9133
:100320001F91FF90EF90DF90CF90BF90AF909F9084
:100330008F9008950F931F93CF93DF93C0E0D0E089
:10034000082F10E0C017D10764F420E137E240E045
:1003500050E061E270E080E090E00E94440121966C
:10036000F1CFDF91CF911F910F9108954F925F923E
:100370006F927F92AF92BF92CF92DF92EF92FF92F5
:100380000F931F93CF93DF9300E010E0C82ED12C82
:1003900098EEA92E93E0B92E0C151D050CF042C065
:1003A000C0E0D1E08CE9E82E81E0F82E69917991E6
:1003B000C5010E940F062B01662457FC6094762C21
:1003C000F701619171917F01882777FD8095982FC2
:1003D000A30192010E944401C301B2010E941005D1
:1003E00026E636E646EA5FE30E9474050E94DD04D5
:1003F0006115710549F08FEA94E00197F1F700C0AB
:10040000000061507109F4CFA301920160E070E037
:10041000CB010E94440191E0CC39D90739F60F5F36
:100420001F4FBACFDF91CF911F910F91FF90EF90A7
:10043000DF90CF90BF90AF907F906F905F904F9084
:10044000089520E030E090E082179307B9F04198DA
:100450004FEF53ED60E3415050406040E1F700C082
:100460000000419A4FEF53ED60E34150504060402F
:10047000E1F700C000002F5F3F4FE6CF419A08959B
:10048000CF93C82F8A3019F48DE00E9440028091EA
:10049000C00085FFFCCFC093C60080E090E0CF9104
:1004A00008958091C00087FFFCCF8091C60090E046
:1004B00008951092C50087E68093C40086E080937B
:1004C000C20088E18093C1000895AF92BF92CF929D
:1004D000DF92EF92FF920F931F93CF93DF936C0104
:1004E0007B01009729F18B01C0E0D0E05801809199
:1004F000890390918A030E94B706F80181938F01C6
:100500008A3011F08D3011F4F5010EC060918B032B
:1005100070918C0390E00E94F5062196CC15DD05C4
:1005200029F7F701EC0FFD1F10828C2F8F5F01C0A0
:1005300080E0DF91CF911F910F91FF90EF90DF90BE
:10054000CF90BF90AF900895579A569A559A549A63
:10055000219A209A229A08955F9887FD5F9A5E9863
:1005600086FD5E9A5D9885FD5D9A5C9884FD5C9A37
:10057000299A85E08A95F1F70000299885E08A9507
:10058000F1F700000895CF93C82F2A98289A299848
:100590000E94AC028C2F8295807FCF910C94AC028C
:1005A000CF93C82F2A98289829980E94AC028C2FA4
:1005B0008295807FCF910C94AC02579828982A9A04
:1005C000299A85E08A95F1F7000089B1299895E08C
:1005D0009A95F1F70000299A95E09A95F1F70000B5
:1005E000299895E09A95F1F7000087FDE9CF2A98C0
:1005F000579A08952FEF81EE94E02150804090406B
:10060000E1F700C00000289829982A9880E30E940A
:10061000AC028FE39CE90197F1F700C0000080E392
:100620000E94AC028FE193E00197F1F700C0000057
:1006300080E30E94AC028FE391E00197F1F700C0E4
:10064000000088E20E94AC020E94DD0288E20E9463
:10065000D0020E94DD0288E00E94D0020E94DD02EA
:1006600081E00E94D0020E94DD0286E00E94D0025A
:100670000E94DD028CE00C94D0020F931F93CF9365
:10068000DF9300D0CDB7DEB78C011A821982E981E1
:10069000FA81E00FF11F8081882381F00E94DD0242
:1006A000E981FA81E00FF11F80810E94C302298154
:1006B0003A812F5F3F4F3A832983E9CF0F900F9004
:1006C000DF91CF911F910F91089580E480937C007A
:1006D00087E880937A00089590917C008770892B39
:1006E00080937C0080917A00806480937A0080916E
:1006F0007A0084FFFCCF80917A00806180937A0039
:100700008091780090917900A0E0B0E0FB018083B7
:100710009183A283B38380917800909179000895AA
:10072000CF93DF93CDB7DEB72D970FB6F894DEBF2A
:100730000FBECDBF0E9459028AE892E090938C03CD
:1007400080938B038CE792E090938A0380938903D4
:100750000E9465033D9A3C983B98529A27B136B166
:1007600081E090E001C0880F3A95EAF780958223F6
:1007700087B9399A419A0E94530083E00E9421026E
:1007800088248A9423E0922EA12CB12C0BEF12E046
:100790003CE3432E512C612C712C65E873E080E022
:1007A0000E946C039F938F93A4EBB2E0BF93AF932F
:1007B0000E9427072091850330918603409187038B
:1007C00050918803A8E0B7E00E944206A501940179
:1007D0000E94230669017A01FF92EF92DF922F9324
:1007E000A5ECB2E0BF93AF930E942707C701B60103
:1007F0000E9477000FB6F894DEBF0FBECDBF349BCA
:10080000CCCF1C141D041E041F043CF60E94DD0204
:1008100081E00E94D00289ED92E00E943D0382E0D7
:100820000E9421029FEFA3EDB0E39150A040B040A1
:10083000E1F700C00000459A33243394339B0DC088
:100840000E94DD0281E00E94D0028AEE92E00E94C6
:100850003D0381E08093840395C032996FC03110CD
:1008600001C0459AFF92EF92DF92CF921F930F93B0
:100870000E9427070E94DD0281E00E94D0028EE1E3
:1008800093E00E943D030E94DD0280EC0E94D002B2
:10089000C701B601A30192010E942306362F272E1D
:1008A0006B874AE0BE016A5F7F4F822F90E03C87F2
:1008B0002D870E9492064AE0BE016F5F7F4F3C8504
:1008C000832F922D0E9492060E94DD0289EA92E017
:1008D0000E943D030F900F900F900F900F900F907C
:1008E0005D855A3030F40E94DD0280EB92E00E9478
:1008F0003D030E94DD02CE0106960E943D030E9448
:10090000DD0282EB92E00E943D032B852A3030F419
:100910000E94DD0280EB92E00E943D030E94DD0216
:10092000CE0101960E943D038FEF93EDA0E381502D
:100930009040A040E1F700C000001DC045988FE244
:1009400093E00E943B070E94DD0281E00E94D002FA
:100950008EE493E00E943D030E94DD0280EC0E9441
:10096000D00280E693E00E943D03BFEFCB1ADB0A82
:10097000EB0AFB0A312C21E0C21AD108E108F10888
:10098000F7FE5CCF45988091840381110DC00E94D1
:10099000DD0281E00E94D00282E793E00E943D03E5
:1009A00082E00E94B60105C08DE00E949A0110927B
:1009B000840382E00E942102F0CE04D06894B11139
:1009C0008DC0089570D088F09F5790F0B92F992767
:1009D000B751A0F0D1F0660F771F881F991F1AF04A
:1009E000BA95C9F712C0B13081F077D0B1E008955F
:1009F00074C0672F782F8827B85F39F0B93FCCF3E0
:100A0000869577956795B395D9F73EF4909580953F
:100A1000709561957F4F8F4F9F4F0895E89409C05F
:100A200097FB3EF490958095709561957F4F8F4F21
:100A30009F4F9923A9F0F92F96E9BB279395F69537
:100A4000879577956795B795F111F8CFFAF4BB0FB5
:100A500011F460FF1BC06F5F7F4F8F4F9F4F16C019
:100A6000882311F096E911C0772321F09EE8872FA3
:100A7000762F05C0662371F096E8862F70E060E05F
:100A80002AF09A95660F771F881FDAF7880F9695D8
:100A9000879597F9089557FD9058440F551F59F0C1
:100AA0005F3F71F04795880F97FB991F61F09F3F5B
:100AB00079F087950895121613061406551FF2CF84
:100AC0004695F1DF08C0161617061806991FF1CFD4
:100AD00086957105610508940895E894BB276627FB
:100AE0007727CB0197F908950BD078C069D028F00B
:100AF0006ED018F0952309F05AC05FC01124EECFD4
:100B0000CADFA0F3959FD1F3950F50E0551F629F68
:100B1000F001729FBB27F00DB11D639FAA27F00D56
:100B2000B11DAA1F649F6627B00DA11D661F829F7D
:100B30002227B00DA11D621F739FB00DA11D621F62
:100B4000839FA00D611D221F749F3327A00D611D7F
:100B5000231F849F600D211D822F762F6A2F112461
:100B60009F5750408AF0E1F088234AF0EE0FFF1FB4
:100B7000BB1F661F771F881F91505040A9F79E3FEB
:100B8000510570F014C0AACF5F3FECF3983EDCF340
:100B9000869577956795B795F795E7959F5FC1F728
:100BA000FE2B880F911D9695879597F9089597F9D3
:100BB0009F6780E870E060E008959FEF80EC089503
:100BC00000240A941616170618060906089500242C
:100BD0000A9412161306140605060895092E0394A6
:100BE000000C11F4882352F0BB0F40F4BF2B11F41A
:100BF00060FF04C06F5F7F4F8F4F9F4F0895DB01F1
:100C00008F939F930E944206BF91AF91A29F800D48
:100C1000911DA39F900DB29F900D1124089597FBF5
:100C2000072E16F4009407D077FD09D00E944D06D8
:100C300007FC05D03EF4909581959F4F08957095DF
:100C400061957F4F0895052E97FB1EF400940E9436
:100C50003A0657FD07D00E94610607FC03D04EF408
:100C60000C943A0650954095309521953F4F4F4F43
:100C70005F4F089590958095709561957F4F8F4F48
:100C80009F4F08950E948306A59F900DB49F900DDD
:100C9000A49F800D911D11240895AA1BBB1B51E137
:100CA00007C0AA1FBB1FA617B70710F0A61BB70BDC
:100CB000881F991F5A95A9F780959095BC01CD0181
:100CC0000895A1E21A2EAA1BBB1BFD010DC0AA1F8D
:100CD000BB1FEE1FFF1FA217B307E407F50720F0A5
:100CE000A21BB30BE40BF50B661F771F881F991F20
:100CF0001A9469F760957095809590959B01AC0169
:100D0000BD01CF010895A29FB001B39FC001A39F71
:100D1000700D811D1124911DB29F700D811D112434
:100D2000911D0895BB274A3031F4992322F4BDE286
:100D3000909581959F4F0C949E06BB27FB015527EC
:100D4000AA27880F991FAA1FA41710F0A41B839528
:100D50005051B9F7A05DAA3308F0A95DA19300979F
:100D600079F7B111B1931192CB010C945009CF9343
:100D7000DF93EC012B8120FF33C026FF0AC02F7BBD
:100D80002B838E819F8101969F838E838A8190E041
:100D900029C022FF0FC0E881F9818081992787FD52
:100DA0009095009719F420622B831AC03196F9832D
:100DB000E8830EC0EA85FB85099597FF09C02B8162
:100DC000019611F480E101C080E2822B8B8308C080
:100DD0002E813F812F5F3F4F3F832E83992702C093
:100DE0008FEF9FEFDF91CF9108950F931F93CF93D4
:100DF000DF93182F092FEB018B8181FD03C08FEF4B
:100E00009FEF20C082FF10C04E815F812C813D8109
:100E1000421753077CF4E881F9819F012F5F3F4F10
:100E200039832883108306C0E885F985812F0995C9
:100E3000892B29F72E813F812F5F3F4F3F832E83E0
:100E4000812F902FDF91CF911F910F910895A0E0F6
:100E5000B0E0EDE2F7E00C94CE09FE013596619129
:100E60007191AF0180918B0390918C030E94680770
:100E7000E2E00C94EA090F931F93CF93DF93E09184
:100E80008B03F0918C03238121FF1BC0EC0100E058
:100E900010E0899160918B0370918C03DB011896AF
:100EA000ED91FC911997882331F00995892B89F3ED
:100EB0000FEF1FEFEECF8AE00995892B11F4C801DF
:100EC00002C08FEF9FEFDF91CF911F910F91089597
:100ED000ACE0B0E0EEE6F7E00C94BE097C016B01FB
:100EE0008A01FC0117821682838181FFBDC1CE0178
:100EF00001964C01F7019381F60193FD859193FFD3
:100F000081916F01882309F4ABC1853239F493FDD7
:100F1000859193FF81916F01853229F4B70190E0AB
:100F20000E94F506E7CF512C312C20E02032A0F4AE
:100F30008B3269F030F4803259F0833269F42061E9
:100F40002CC08D3239F0803339F4216026C0226004
:100F5000246023C0286021C027FD27C030ED380F52
:100F60003A3078F426FF06C0FAE05F9E300D112477
:100F7000532E13C08AE0389E300D1124332E206288
:100F80000CC08E3221F426FD6BC1206406C08C3665
:100F900011F4206802C0883641F4F60193FD859172
:100FA00093FF81916F018111C1CF982F9F7D95543F
:100FB000933028F40C5F1F4FFFE3F9830DC0833695
:100FC00031F0833771F0833509F05BC022C0F8013E
:100FD000808189830E5F1F4F44244394512C540118
:100FE00015C03801F2E06F0E711CF801A080B180CD
:100FF00026FF03C0652D70E002C06FEF7FEFC501D3
:101000002C870E9445092C0183012C852F77222EE5
:1010100017C03801F2E06F0E711CF801A080B1809A
:1010200026FF03C0652D70E002C06FEF7FEFC501A2
:101030002C870E943A092C012C852068222E8301DE
:1010400023FC1BC0832D90E048165906B0F4B7016D
:1010500080E290E00E94F5063A94F4CFF50127FC77
:10106000859127FE81915F01B70190E00E94F5060E
:1010700031103A94F1E04F1A51084114510471F7BC
:10108000E5C0843611F0893639F5F80127FF07C02D
:1010900060817181828193810C5F1F4F08C06081E4
:1010A0007181882777FD8095982F0E5F1F4F2F76CF
:1010B000B22E97FF09C090958095709561957F4FEE
:1010C0008F4F9F4F2068B22E2AE030E0A4010E948B
:1010D0006009A82EA81844C0853729F42F7EB22EA7
:1010E0002AE030E025C0F22FF97FBF2E8F36C1F005
:1010F00018F4883579F0B4C0803719F0883721F0BA
:10110000AFC02F2F2061B22EB4FE0DC08B2D846096
:10111000B82E09C024FF0AC09F2F9660B92E06C0C2
:1011200028E030E005C020E130E002C020E132E0FC
:10113000F801B7FE07C060817181828193810C5FE5
:101140001F4F06C06081718180E090E00E5F1F4FED
:10115000A4010E946009A82EA818FB2DFF77BF2EBE
:10116000B6FE0BC02B2D2E7FA51450F4B4FE0AC082
:10117000B2FC08C02B2D2E7E05C07A2C2B2D03C06F
:101180007A2C01C0752C24FF0DC0FE01EA0DF11D63
:101190008081803311F4297E09C022FF06C0739438
:1011A000739404C0822F867809F0739423FD13C0D2
:1011B00020FF06C05A2C731418F4530C5718732CC4
:1011C000731468F4B70180E290E02C870E94F50662
:1011D00073942C85F5CF731410F4371801C0312C9B
:1011E00024FF12C0B70180E390E02C870E94F5062F
:1011F0002C8522FF17C021FF03C088E590E002C0C4
:1012000088E790E0B7010CC0822F867859F021FD65
:1012100002C080E201C08BE227FD8DE2B70190E0C1
:101220000E94F506A51438F4B70180E390E00E940F
:10123000F5065A94F7CFAA94F401EA0DF11D8081C6
:10124000B70190E00E94F506A110F5CF332009F414
:1012500051CEB70180E290E00E94F5063A94F6CFB5
:10126000F7018681978102C08FEF9FEF2C96E2E114
:101270000C94DA09FC010590615070400110D8F718
:10128000809590958E0F9F1F0895FC0161507040CE
:1012900001900110D8F7809590958E0F9F1F0895AB
:1012A000DC01FC01672F71917723E1F7329704C0CD
:1012B0007C916D9370836291AE17BF07C8F3089558
:1012C000FA01AA27283051F1203181F1E8946F9377
:1012D0006E7F6E5F7F4F8F4F9F4FAF4FB1E03ED01D
:1012E000B4E03CD0670F781F891F9A1FA11D680FBB
:1012F000791F8A1F911DA11D6A0F711D811D911DEE
:10130000A11D20D009F468943F912AE0269F112462
:101310003019305D3193DEF6CF010895462F4770C6
:10132000405D4193B3E00FD0C9F7F6CF462F4F7021
:10133000405D4A3318F0495D31FD4052419302D07F
:10134000A9F7EACFB4E0A695979587957795679525
:10135000BA95C9F700976105710508959B01AC0125
:101360000A2E06945795479537952795BA95C9F74C
:10137000620F731F841F951FA01D08952F923F9227
:101380004F925F926F927F928F929F92AF92BF9295
:10139000CF92DF92EF92FF920F931F93CF93DF9341
:1013A000CDB7DEB7CA1BDB0B0FB6F894DEBF0FBE9E
:1013B000CDBF09942A88398848885F846E847D84EB
:1013C0008C849B84AA84B984C884DF80EE80FD80ED
:1013D0000C811B81AA81B981CE0FD11D0FB6F89463
:0E13E000DEBF0FBECDBFED010895F894FFCF24
:1013EE000C000C000C000C000C000C000C000C008F
:1013FE000C000C000C000C000C000C000C000C007F
:10140E000C000C000C000C000C000C000C000C006E
:10141E000C000C000C000C000C000C000C000C005E
:10142E000900090009000C000C000C000C000C0057
:10143E000C000C000C000C000C000C000C000C003E
:10144E000C000C000C000C000C000C000C000C002E
:10145E000C000C000C000C000C000C000C00090021
:10146E00090009000C000C000C000C000C000C0014
:10147E000C000C000C000C000C000C004D0A4D0A68
:10148E0000004D0A00002D084D0A0000400C00001F
:10149E000000000020060000000000002D080000E3
:1014AE000000200600000000270500000000E006F6
:1014BE000000B80700004907E006000020064D0AAC
:1014CE00400CC00D0000EA0A400C00004D0A00005E
:1014DE002D082D09B807000000002D08000000009F
:1014EE00200600000000270500000000E0060000B6
:1014FE00B80700004907E006000020064D0A400C20
:10150E00C00D0000EA0A400C00004D0A00002D0834
:10151E002D09B8070000000020204E6F76203232D1
:10152E002C20323031352020002020566572736910
:10153E006F6E20332E3020202000204578706F7380
:10154E0075726520556E69742020002020416C64F0
:10155E00616E6973205669676F20200000000001DC
:10156E000000000000005102000000000002000018
:10157E000000400200000000204578706F73757205
:10158E00652054696D653A2000202020202020001F
:10159E0030003A005261772052656164696E673A95
:1015AE0020256409004D6170706564205265616488
:1015BE00696E673A2025640900202020205354418B
:1015CE005254494E472020202000202020205354E2
:1015DE004F5050494E4720202020005556204C6930
:1015EE0067687473206F6E20666F723A20256420D0
:1015FE006D6F726520736563732E2E2E0A00202088
:10160E0020204578706F73696E6720202020004C73
:10161E004944204F50454E2C20434C4F53452049B2
:10162E005420544F20434F4E54494E5545002020D0
:10163E0020204C4944204F50454E20202020200091
:10164E0020504C4541534520434C4F53452049545F
:10165E0020002020202046494E4953484544202052
:04166E002020000038
:00000001FF
