:100000000C9434000C9451000C9451000C94510049
:100010000C9451000C9451000C9451000C9451001C
:100020000C9451000C9451000C94E0000C9451007D
:100030000C9451000C9451000C9451000C945100FC
:100040000C9451000C9451000C9451000C945100EC
:100050000C9451000C9451000C9451000C945100DC
:100060000C9451000C94510011241FBECFEFD4E02A
:10007000DEBFCDBF11E0A0E0B1E0EEE2F2E002C0F1
:1000800005900D92A430B107D9F721E0A4E0B1E0CA
:1000900001C01D92AC30B207E1F70E94FA000C9447
:1000A00015010C94000080E480937C0086E8809326
:1000B0007A00089520917C0087709927287F282B4B
:1000C00020937C0080917A00806480937A008091F4
:1000D0007A0086FDFCCF8091780090917900089598
:1000E0008091C00087FFFCCF8091C6000895909159
:1000F000C00095FFFCCF8093C6000895CF93DF9397
:100100000E947000C2E0D1E0882321F089930E9410
:100110007000FACF82E091E0DF91CF9108950F93C4
:100120001F93CF93DF93EC018C01FE01019000201F
:10013000E9F73197EC1BFD0BC8018C1B9D0B8E174B
:100140009F0730F4F80181918F010E947700EDCF75
:10015000DF91CF911F910F91089520E030E0281793
:1001600039074CF4EFE9FFE03197F1F700C00000E8
:100170002F5F3F4FF4CF0895FB01DC012D91CD019E
:100180003191231303C02111F8CF07C0222319F0A6
:100190008FEF9FEF08953111FBCF80E090E008953D
:1001A0008FE08093800084E480938100109282002D
:1001B00081E280936F001092850010928400089570
:1001C0001F920F920FB60F9211248F939F938091DD
:1001D000860090918700909307018093060110920A
:1001E0008500109284009F918F910F900FBE0F9009
:1001F0001F90189578941092C50087E68093C400EC
:1002000086E08093C20088E18093C10020980E941C
:10021000D0003D9A459A88EE93E00E94AD00459843
:0E02200088EE93E00E94AD00F5CFF894FFCF7A
:04022E0000000000CC
:00000001FF
